{
  "contractName": "FileSharing",
  "abi": [
    {
      "anonymous": false,
      "inputs": [
        {
          "indexed": true,
          "internalType": "uint256",
          "name": "fileId",
          "type": "uint256"
        },
        {
          "indexed": false,
          "internalType": "address",
          "name": "sharedWith",
          "type": "address"
        }
      ],
      "name": "FileShared",
      "type": "event"
    },
    {
      "anonymous": false,
      "inputs": [
        {
          "indexed": true,
          "internalType": "uint256",
          "name": "fileId",
          "type": "uint256"
        },
        {
          "indexed": false,
          "internalType": "string",
          "name": "ipfsHash",
          "type": "string"
        },
        {
          "indexed": false,
          "internalType": "string",
          "name": "fileName",
          "type": "string"
        },
        {
          "indexed": false,
          "internalType": "address",
          "name": "uploader",
          "type": "address"
        }
      ],
      "name": "FileUploaded",
      "type": "event"
    },
    {
      "inputs": [],
      "name": "fileCount",
      "outputs": [
        {
          "internalType": "uint256",
          "name": "",
          "type": "uint256"
        }
      ],
      "stateMutability": "view",
      "type": "function",
      "constant": true
    },
    {
      "inputs": [
        {
          "internalType": "uint256",
          "name": "",
          "type": "uint256"
        }
      ],
      "name": "files",
      "outputs": [
        {
          "internalType": "string",
          "name": "ipfsHash",
          "type": "string"
        },
        {
          "internalType": "string",
          "name": "fileName",
          "type": "string"
        },
        {
          "internalType": "uint256",
          "name": "uploadTime",
          "type": "uint256"
        },
        {
          "internalType": "address",
          "name": "uploader",
          "type": "address"
        }
      ],
      "stateMutability": "view",
      "type": "function",
      "constant": true
    },
    {
      "inputs": [
        {
          "internalType": "string",
          "name": "_ipfsHash",
          "type": "string"
        },
        {
          "internalType": "string",
          "name": "_fileName",
          "type": "string"
        }
      ],
      "name": "uploadFile",
      "outputs": [],
      "stateMutability": "nonpayable",
      "type": "function"
    },
    {
      "inputs": [
        {
          "internalType": "uint256",
          "name": "_fileId",
          "type": "uint256"
        },
        {
          "internalType": "address",
          "name": "_user",
          "type": "address"
        }
      ],
      "name": "shareFile",
      "outputs": [],
      "stateMutability": "nonpayable",
      "type": "function"
    },
    {
      "inputs": [
        {
          "internalType": "uint256",
          "name": "_fileId",
          "type": "uint256"
        }
      ],
      "name": "getFile",
      "outputs": [
        {
          "internalType": "string",
          "name": "",
          "type": "string"
        },
        {
          "internalType": "string",
          "name": "",
          "type": "string"
        },
        {
          "internalType": "uint256",
          "name": "",
          "type": "uint256"
        },
        {
          "internalType": "address",
          "name": "",
          "type": "address"
        },
        {
          "internalType": "address[]",
          "name": "",
          "type": "address[]"
        }
      ],
      "stateMutability": "view",
      "type": "function",
      "constant": true
    },
    {
      "inputs": [],
      "name": "getSharedFiles",
      "outputs": [
        {
          "internalType": "uint256[]",
          "name": "",
          "type": "uint256[]"
        }
      ],
      "stateMutability": "view",
      "type": "function",
      "constant": true
    }
  ],
  "bytecode": "0x608060405234801561000f575f80fd5b5061142e8061001d5f395ff3fe608060405234801561000f575f80fd5b5060043610610060575f3560e01c80632bfda313146100645780634395351914610098578063914e3144146100b6578063996d50bf146100d4578063aaccd05a146100f0578063f4c714b41461010c575b5f80fd5b61007e60048036038101906100799190610a5f565b61013f565b60405161008f959493929190610c19565b60405180910390f35b6100a061033a565b6040516100ad9190610c7f565b60405180910390f35b6100be610340565b6040516100cb9190610d4f565b60405180910390f35b6100ee60048036038101906100e99190610e9b565b610547565b005b61010a60048036038101906101059190610f3b565b6106d6565b005b61012660048036038101906101219190610a5f565b610823565b6040516101369493929190610f79565b60405180910390f35b6060805f8060605f805f8881526020019081526020015f209050805f01816001018260020154836003015f9054906101000a900473ffffffffffffffffffffffffffffffffffffffff168460040184805461019990610ff7565b80601f01602080910402602001604051908101604052809291908181526020018280546101c590610ff7565b80156102105780601f106101e757610100808354040283529160200191610210565b820191905f5260205f20905b8154815290600101906020018083116101f357829003601f168201915b5050505050945083805461022390610ff7565b80601f016020809104026020016040519081016040528092919081815260200182805461024f90610ff7565b801561029a5780601f106102715761010080835404028352916020019161029a565b820191905f5260205f20905b81548152906001019060200180831161027d57829003601f168201915b505050505093508080548060200260200160405190810160405280929190818152602001828054801561031f57602002820191905f5260205f20905b815f9054906101000a900473ffffffffffffffffffffffffffffffffffffffff1673ffffffffffffffffffffffffffffffffffffffff16815260200190600101908083116102d6575b50505050509050955095509550955095505091939590929450565b60015481565b60605f60015467ffffffffffffffff81111561035f5761035e610d77565b5b60405190808252806020026020018201604052801561038d5781602001602082028036833780820191505090505b5090505f80600190505b6001548111610499575f5b5f808381526020019081526020015f2060040180549050811015610485573373ffffffffffffffffffffffffffffffffffffffff165f808481526020019081526020015f2060040182815481106103fc576103fb611027565b5b905f5260205f20015f9054906101000a900473ffffffffffffffffffffffffffffffffffffffff1673ffffffffffffffffffffffffffffffffffffffff1603610472578184848151811061045357610452611027565b5b602002602001018181525050828061046a90611081565b935050610485565b808061047d90611081565b9150506103a2565b50808061049190611081565b915050610397565b505f8167ffffffffffffffff8111156104b5576104b4610d77565b5b6040519080825280602002602001820160405280156104e35781602001602082028036833780820191505090505b5090505f5b8281101561053d5783818151811061050357610502611027565b5b602002602001015182828151811061051e5761051d611027565b5b602002602001018181525050808061053590611081565b9150506104e8565b5080935050505090565b60015f81548092919061055990611081565b91905055505f8067ffffffffffffffff81111561057957610578610d77565b5b6040519080825280602002602001820160405280156105a75781602001602082028036833780820191505090505b5090506040518060a001604052808481526020018381526020014281526020013373ffffffffffffffffffffffffffffffffffffffff168152602001828152505f8060015481526020019081526020015f205f820151815f01908161060c9190611265565b5060208201518160010190816106229190611265565b50604082015181600201556060820151816003015f6101000a81548173ffffffffffffffffffffffffffffffffffffffff021916908373ffffffffffffffffffffffffffffffffffffffff160217905550608082015181600401908051906020019061068f929190610979565b509050506001547f6edffbd56628401d71fdb0444cb287571be6e6b0aadbbd9baf8b928dc536d79e8484336040516106c993929190611334565b60405180910390a2505050565b3373ffffffffffffffffffffffffffffffffffffffff165f808481526020019081526020015f206003015f9054906101000a900473ffffffffffffffffffffffffffffffffffffffff1673ffffffffffffffffffffffffffffffffffffffff1614610776576040517f08c379a000000000000000000000000000000000000000000000000000000000815260040161076d906113c1565b60405180910390fd5b5f808381526020019081526020015f2060040181908060018154018082558091505060019003905f5260205f20015f9091909190916101000a81548173ffffffffffffffffffffffffffffffffffffffff021916908373ffffffffffffffffffffffffffffffffffffffff160217905550817ff51e38688e875698cd26d3e2713aa3404bcf703a5675f744251918da98a2f18e8260405161081791906113df565b60405180910390a25050565b5f602052805f5260405f205f91509050805f01805461084190610ff7565b80601f016020809104026020016040519081016040528092919081815260200182805461086d90610ff7565b80156108b85780601f1061088f576101008083540402835291602001916108b8565b820191905f5260205f20905b81548152906001019060200180831161089b57829003601f168201915b5050505050908060010180546108cd90610ff7565b80601f01602080910402602001604051908101604052809291908181526020018280546108f990610ff7565b80156109445780601f1061091b57610100808354040283529160200191610944565b820191905f5260205f20905b81548152906001019060200180831161092757829003601f168201915b505050505090806002015490806003015f9054906101000a900473ffffffffffffffffffffffffffffffffffffffff16905084565b828054828255905f5260205f209081019282156109ef579160200282015b828111156109ee578251825f6101000a81548173ffffffffffffffffffffffffffffffffffffffff021916908373ffffffffffffffffffffffffffffffffffffffff16021790555091602001919060010190610997565b5b5090506109fc9190610a00565b5090565b5b80821115610a17575f815f905550600101610a01565b5090565b5f604051905090565b5f80fd5b5f80fd5b5f819050919050565b610a3e81610a2c565b8114610a48575f80fd5b50565b5f81359050610a5981610a35565b92915050565b5f60208284031215610a7457610a73610a24565b5b5f610a8184828501610a4b565b91505092915050565b5f81519050919050565b5f82825260208201905092915050565b5f5b83811015610ac1578082015181840152602081019050610aa6565b5f8484015250505050565b5f601f19601f8301169050919050565b5f610ae682610a8a565b610af08185610a94565b9350610b00818560208601610aa4565b610b0981610acc565b840191505092915050565b610b1d81610a2c565b82525050565b5f73ffffffffffffffffffffffffffffffffffffffff82169050919050565b5f610b4c82610b23565b9050919050565b610b5c81610b42565b82525050565b5f81519050919050565b5f82825260208201905092915050565b5f819050602082019050919050565b610b9481610b42565b82525050565b5f610ba58383610b8b565b60208301905092915050565b5f602082019050919050565b5f610bc782610b62565b610bd18185610b6c565b9350610bdc83610b7c565b805f5b83811015610c0c578151610bf38882610b9a565b9750610bfe83610bb1565b925050600181019050610bdf565b5085935050505092915050565b5f60a0820190508181035f830152610c318188610adc565b90508181036020830152610c458187610adc565b9050610c546040830186610b14565b610c616060830185610b53565b8181036080830152610c738184610bbd565b90509695505050505050565b5f602082019050610c925f830184610b14565b92915050565b5f81519050919050565b5f82825260208201905092915050565b5f819050602082019050919050565b610cca81610a2c565b82525050565b5f610cdb8383610cc1565b60208301905092915050565b5f602082019050919050565b5f610cfd82610c98565b610d078185610ca2565b9350610d1283610cb2565b805f5b83811015610d42578151610d298882610cd0565b9750610d3483610ce7565b925050600181019050610d15565b5085935050505092915050565b5f6020820190508181035f830152610d678184610cf3565b905092915050565b5f80fd5b5f80fd5b7f4e487b71000000000000000000000000000000000000000000000000000000005f52604160045260245ffd5b610dad82610acc565b810181811067ffffffffffffffff82111715610dcc57610dcb610d77565b5b80604052505050565b5f610dde610a1b565b9050610dea8282610da4565b919050565b5f67ffffffffffffffff821115610e0957610e08610d77565b5b610e1282610acc565b9050602081019050919050565b828183375f83830152505050565b5f610e3f610e3a84610def565b610dd5565b905082815260208101848484011115610e5b57610e5a610d73565b5b610e66848285610e1f565b509392505050565b5f82601f830112610e8257610e81610d6f565b5b8135610e92848260208601610e2d565b91505092915050565b5f8060408385031215610eb157610eb0610a24565b5b5f83013567ffffffffffffffff811115610ece57610ecd610a28565b5b610eda85828601610e6e565b925050602083013567ffffffffffffffff811115610efb57610efa610a28565b5b610f0785828601610e6e565b9150509250929050565b610f1a81610b42565b8114610f24575f80fd5b50565b5f81359050610f3581610f11565b92915050565b5f8060408385031215610f5157610f50610a24565b5b5f610f5e85828601610a4b565b9250506020610f6f85828601610f27565b9150509250929050565b5f6080820190508181035f830152610f918187610adc565b90508181036020830152610fa58186610adc565b9050610fb46040830185610b14565b610fc16060830184610b53565b95945050505050565b7f4e487b71000000000000000000000000000000000000000000000000000000005f52602260045260245ffd5b5f600282049050600182168061100e57607f821691505b60208210810361102157611020610fca565b5b50919050565b7f4e487b71000000000000000000000000000000000000000000000000000000005f52603260045260245ffd5b7f4e487b71000000000000000000000000000000000000000000000000000000005f52601160045260245ffd5b5f61108b82610a2c565b91507fffffffffffffffffffffffffffffffffffffffffffffffffffffffffffffffff82036110bd576110bc611054565b5b600182019050919050565b5f819050815f5260205f209050919050565b5f6020601f8301049050919050565b5f82821b905092915050565b5f600883026111247fffffffffffffffffffffffffffffffffffffffffffffffffffffffffffffffff826110e9565b61112e86836110e9565b95508019841693508086168417925050509392505050565b5f819050919050565b5f61116961116461115f84610a2c565b611146565b610a2c565b9050919050565b5f819050919050565b6111828361114f565b61119661118e82611170565b8484546110f5565b825550505050565b5f90565b6111aa61119e565b6111b5818484611179565b505050565b5b818110156111d8576111cd5f826111a2565b6001810190506111bb565b5050565b601f82111561121d576111ee816110c8565b6111f7846110da565b81016020851015611206578190505b61121a611212856110da565b8301826111ba565b50505b505050565b5f82821c905092915050565b5f61123d5f1984600802611222565b1980831691505092915050565b5f611255838361122e565b9150826002028217905092915050565b61126e82610a8a565b67ffffffffffffffff81111561128757611286610d77565b5b6112918254610ff7565b61129c8282856111dc565b5f60209050601f8311600181146112cd575f84156112bb578287015190505b6112c5858261124a565b86555061132c565b601f1984166112db866110c8565b5f5b82811015611302578489015182556001820191506020850194506020810190506112dd565b8683101561131f578489015161131b601f89168261122e565b8355505b6001600288020188555050505b505050505050565b5f6060820190508181035f83015261134c8186610adc565b905081810360208301526113608185610adc565b905061136f6040830184610b53565b949350505050565b7f596f7520617265206e6f74207468652075706c6f6164657200000000000000005f82015250565b5f6113ab601883610a94565b91506113b682611377565b602082019050919050565b5f6020820190508181035f8301526113d88161139f565b9050919050565b5f6020820190506113f25f830184610b53565b9291505056fea2646970667358221220645059c0f842ef4b178c0755f770c20cee8029ccba043e4e6e847e188f112e1464736f6c63430008150033",
  "immutableReferences": {},
  "source": "// SPDX-License-Identifier: MIT\r\npragma solidity ^0.8.0;\r\n\r\ncontract FileSharing {\r\n    struct File {\r\n        string ipfsHash;\r\n        string fileName;\r\n        uint256 uploadTime;\r\n        address uploader;\r\n        address[] sharedWith;  \r\n    }\r\n\r\n    mapping(uint256 => File) public files;\r\n    uint256 public fileCount;\r\n\r\n    event FileUploaded(uint256 indexed fileId, string ipfsHash, string fileName, address uploader);\r\n    event FileShared(uint256 indexed fileId, address sharedWith);\r\n\r\n    function uploadFile(string memory _ipfsHash, string memory _fileName) public {\r\n        fileCount++;\r\n        address[] memory emptyAddressArray = new address[](0);\r\n        files[fileCount] = File(\r\n            _ipfsHash,\r\n            _fileName,\r\n            block.timestamp,\r\n            msg.sender,\r\n            emptyAddressArray\r\n        );\r\n\r\n        emit FileUploaded(fileCount, _ipfsHash, _fileName, msg.sender);\r\n    }\r\n\r\n    function shareFile(uint256 _fileId, address _user) public {\r\n        require(files[_fileId].uploader == msg.sender, \"You are not the uploader\");\r\n        files[_fileId].sharedWith.push(_user);\r\n        emit FileShared(_fileId, _user);\r\n    }\r\n\r\n    function getFile(uint256 _fileId) public view returns (string memory, string memory, uint256, address, address[] memory) {\r\n        File storage file = files[_fileId];\r\n        return (file.ipfsHash, file.fileName, file.uploadTime, file.uploader, file.sharedWith);\r\n    }\r\n\r\n    function getSharedFiles() public view returns (uint256[] memory) {\r\n        uint256[] memory sharedFileIds = new uint256[](fileCount);\r\n        uint256 index = 0;\r\n        \r\n        for (uint256 i = 1; i <= fileCount; i++) {\r\n            for (uint256 j = 0; j < files[i].sharedWith.length; j++) {\r\n                if (files[i].sharedWith[j] == msg.sender) {\r\n                    sharedFileIds[index] = i;\r\n                    index++;\r\n                    break;\r\n                }\r\n            }\r\n        }\r\n\r\n        // Resize the array to the actual count of shared files\r\n        uint256[] memory result = new uint256[](index);\r\n        for (uint256 k = 0; k < index; k++) {\r\n            result[k] = sharedFileIds[k];\r\n        }\r\n        return result;\r\n    }\r\n}",
  "sourcePath": "C:\\Users\\USER\\Desktop\\BCT Project lab\\file-sharing-dapp\\contracts\\FileSharing.sol",
  "compiler": {
    "name": "solc",
    "version": "0.8.21+commit.d9974bed.Emscripten.clang"
  },
  "schemaVersion": "3.4.16",
  "updatedAt": "2024-11-12T04:29:41.229Z",
  "networkType": "ethereum",
  "devdoc": {
    "kind": "dev",
    "methods": {},
    "version": 1
  },
  "userdoc": {
    "kind": "user",
    "methods": {},
    "version": 1
  }
}