{
  "contractName": "FileSharing",
  "abi": [
    {
      "anonymous": false,
      "inputs": [
        {
          "indexed": true,
          "internalType": "uint256",
          "name": "fileId",
          "type": "uint256"
        },
        {
          "indexed": false,
          "internalType": "string",
          "name": "ipfsHash",
          "type": "string"
        },
        {
          "indexed": false,
          "internalType": "string",
          "name": "fileName",
          "type": "string"
        },
        {
          "indexed": false,
          "internalType": "uint256",
          "name": "uploadTime",
          "type": "uint256"
        },
        {
          "indexed": false,
          "internalType": "address",
          "name": "uploader",
          "type": "address"
        }
      ],
      "name": "FileUploaded",
      "type": "event"
    },
    {
      "inputs": [],
      "name": "fileCount",
      "outputs": [
        {
          "internalType": "uint256",
          "name": "",
          "type": "uint256"
        }
      ],
      "stateMutability": "view",
      "type": "function",
      "constant": true
    },
    {
      "inputs": [
        {
          "internalType": "uint256",
          "name": "",
          "type": "uint256"
        }
      ],
      "name": "files",
      "outputs": [
        {
          "internalType": "string",
          "name": "ipfsHash",
          "type": "string"
        },
        {
          "internalType": "string",
          "name": "fileName",
          "type": "string"
        },
        {
          "internalType": "uint256",
          "name": "uploadTime",
          "type": "uint256"
        },
        {
          "internalType": "address",
          "name": "uploader",
          "type": "address"
        }
      ],
      "stateMutability": "view",
      "type": "function",
      "constant": true
    },
    {
      "inputs": [
        {
          "internalType": "string",
          "name": "_ipfsHash",
          "type": "string"
        },
        {
          "internalType": "string",
          "name": "_fileName",
          "type": "string"
        }
      ],
      "name": "uploadFile",
      "outputs": [],
      "stateMutability": "nonpayable",
      "type": "function"
    },
    {
      "inputs": [
        {
          "internalType": "uint256",
          "name": "_fileId",
          "type": "uint256"
        }
      ],
      "name": "getFile",
      "outputs": [
        {
          "internalType": "string",
          "name": "",
          "type": "string"
        },
        {
          "internalType": "string",
          "name": "",
          "type": "string"
        },
        {
          "internalType": "uint256",
          "name": "",
          "type": "uint256"
        },
        {
          "internalType": "address",
          "name": "",
          "type": "address"
        }
      ],
      "stateMutability": "view",
      "type": "function",
      "constant": true
    }
  ],
  "bytecode": "0x608060405234801561000f575f80fd5b50610e038061001d5f395ff3fe608060405234801561000f575f80fd5b506004361061004a575f3560e01c80632bfda3131461004e5780634395351914610081578063996d50bf1461009f578063f4c714b4146100bb575b5f80fd5b61006860048036038101906100639190610649565b6100ee565b604051610078949392919061074c565b60405180910390f35b610089610302565b604051610096919061079d565b60405180910390f35b6100b960048036038101906100b491906108e2565b610308565b005b6100d560048036038101906100d09190610649565b6104af565b6040516100e5949392919061074c565b60405180910390f35b6060805f80600154851115801561010457505f85115b610143576040517f08c379a000000000000000000000000000000000000000000000000000000000815260040161013a906109a2565b60405180910390fd5b5f805f8781526020019081526020015f206040518060800160405290815f8201805461016e906109ed565b80601f016020809104026020016040519081016040528092919081815260200182805461019a906109ed565b80156101e55780601f106101bc576101008083540402835291602001916101e5565b820191905f5260205f20905b8154815290600101906020018083116101c857829003601f168201915b505050505081526020016001820180546101fe906109ed565b80601f016020809104026020016040519081016040528092919081815260200182805461022a906109ed565b80156102755780601f1061024c57610100808354040283529160200191610275565b820191905f5260205f20905b81548152906001019060200180831161025857829003601f168201915b5050505050815260200160028201548152602001600382015f9054906101000a900473ffffffffffffffffffffffffffffffffffffffff1673ffffffffffffffffffffffffffffffffffffffff1673ffffffffffffffffffffffffffffffffffffffff16815250509050805f01518160200151826040015183606001519450945094509450509193509193565b60015481565b5f82511161034b576040517f08c379a000000000000000000000000000000000000000000000000000000000815260040161034290610a67565b60405180910390fd5b5f81511161038e576040517f08c379a000000000000000000000000000000000000000000000000000000000815260040161038590610acf565b60405180910390fd5b60015f8154809291906103a090610b1a565b919050555060405180608001604052808381526020018281526020014281526020013373ffffffffffffffffffffffffffffffffffffffff168152505f8060015481526020019081526020015f205f820151815f0190816104019190610cfe565b5060208201518160010190816104179190610cfe565b50604082015181600201556060820151816003015f6101000a81548173ffffffffffffffffffffffffffffffffffffffff021916908373ffffffffffffffffffffffffffffffffffffffff1602179055509050506001547f32053c383fd6698497d9573f793a7ae108c26edad036e5bb6f6e0e6b95c47e32838342336040516104a3949392919061074c565b60405180910390a25050565b5f602052805f5260405f205f91509050805f0180546104cd906109ed565b80601f01602080910402602001604051908101604052809291908181526020018280546104f9906109ed565b80156105445780601f1061051b57610100808354040283529160200191610544565b820191905f5260205f20905b81548152906001019060200180831161052757829003601f168201915b505050505090806001018054610559906109ed565b80601f0160208091040260200160405190810160405280929190818152602001828054610585906109ed565b80156105d05780601f106105a7576101008083540402835291602001916105d0565b820191905f5260205f20905b8154815290600101906020018083116105b357829003601f168201915b505050505090806002015490806003015f9054906101000a900473ffffffffffffffffffffffffffffffffffffffff16905084565b5f604051905090565b5f80fd5b5f80fd5b5f819050919050565b61062881610616565b8114610632575f80fd5b50565b5f813590506106438161061f565b92915050565b5f6020828403121561065e5761065d61060e565b5b5f61066b84828501610635565b91505092915050565b5f81519050919050565b5f82825260208201905092915050565b5f5b838110156106ab578082015181840152602081019050610690565b5f8484015250505050565b5f601f19601f8301169050919050565b5f6106d082610674565b6106da818561067e565b93506106ea81856020860161068e565b6106f3816106b6565b840191505092915050565b61070781610616565b82525050565b5f73ffffffffffffffffffffffffffffffffffffffff82169050919050565b5f6107368261070d565b9050919050565b6107468161072c565b82525050565b5f6080820190508181035f83015261076481876106c6565b9050818103602083015261077881866106c6565b905061078760408301856106fe565b610794606083018461073d565b95945050505050565b5f6020820190506107b05f8301846106fe565b92915050565b5f80fd5b5f80fd5b7f4e487b71000000000000000000000000000000000000000000000000000000005f52604160045260245ffd5b6107f4826106b6565b810181811067ffffffffffffffff82111715610813576108126107be565b5b80604052505050565b5f610825610605565b905061083182826107eb565b919050565b5f67ffffffffffffffff8211156108505761084f6107be565b5b610859826106b6565b9050602081019050919050565b828183375f83830152505050565b5f61088661088184610836565b61081c565b9050828152602081018484840111156108a2576108a16107ba565b5b6108ad848285610866565b509392505050565b5f82601f8301126108c9576108c86107b6565b5b81356108d9848260208601610874565b91505092915050565b5f80604083850312156108f8576108f761060e565b5b5f83013567ffffffffffffffff81111561091557610914610612565b5b610921858286016108b5565b925050602083013567ffffffffffffffff81111561094257610941610612565b5b61094e858286016108b5565b9150509250929050565b7f496e76616c69642066696c6520494400000000000000000000000000000000005f82015250565b5f61098c600f8361067e565b915061099782610958565b602082019050919050565b5f6020820190508181035f8301526109b981610980565b9050919050565b7f4e487b71000000000000000000000000000000000000000000000000000000005f52602260045260245ffd5b5f6002820490506001821680610a0457607f821691505b602082108103610a1757610a166109c0565b5b50919050565b7f4950465320686173682063616e6e6f7420626520656d707479000000000000005f82015250565b5f610a5160198361067e565b9150610a5c82610a1d565b602082019050919050565b5f6020820190508181035f830152610a7e81610a45565b9050919050565b7f46696c65206e616d652063616e6e6f7420626520656d707479000000000000005f82015250565b5f610ab960198361067e565b9150610ac482610a85565b602082019050919050565b5f6020820190508181035f830152610ae681610aad565b9050919050565b7f4e487b71000000000000000000000000000000000000000000000000000000005f52601160045260245ffd5b5f610b2482610616565b91507fffffffffffffffffffffffffffffffffffffffffffffffffffffffffffffffff8203610b5657610b55610aed565b5b600182019050919050565b5f819050815f5260205f209050919050565b5f6020601f8301049050919050565b5f82821b905092915050565b5f60088302610bbd7fffffffffffffffffffffffffffffffffffffffffffffffffffffffffffffffff82610b82565b610bc78683610b82565b95508019841693508086168417925050509392505050565b5f819050919050565b5f610c02610bfd610bf884610616565b610bdf565b610616565b9050919050565b5f819050919050565b610c1b83610be8565b610c2f610c2782610c09565b848454610b8e565b825550505050565b5f90565b610c43610c37565b610c4e818484610c12565b505050565b5b81811015610c7157610c665f82610c3b565b600181019050610c54565b5050565b601f821115610cb657610c8781610b61565b610c9084610b73565b81016020851015610c9f578190505b610cb3610cab85610b73565b830182610c53565b50505b505050565b5f82821c905092915050565b5f610cd65f1984600802610cbb565b1980831691505092915050565b5f610cee8383610cc7565b9150826002028217905092915050565b610d0782610674565b67ffffffffffffffff811115610d2057610d1f6107be565b5b610d2a82546109ed565b610d35828285610c75565b5f60209050601f831160018114610d66575f8415610d54578287015190505b610d5e8582610ce3565b865550610dc5565b601f198416610d7486610b61565b5f5b82811015610d9b57848901518255600182019150602085019450602081019050610d76565b86831015610db85784890151610db4601f891682610cc7565b8355505b6001600288020188555050505b50505050505056fea26469706673582212202a3ba3ab39c415b0fa706f6b9bdaa8e308c06a399b33ddc019303a3530bcd2e864736f6c63430008150033",
  "immutableReferences": {},
  "source": "// SPDX-License-Identifier: MIT\r\npragma solidity ^0.8.0;\r\n\r\ncontract FileSharing {\r\n    struct File {\r\n        string ipfsHash;\r\n        string fileName;\r\n        uint256 uploadTime;\r\n        address uploader;\r\n    }\r\n\r\n    mapping(uint256 => File) public files;\r\n    uint256 public fileCount;\r\n\r\n    event FileUploaded(\r\n        uint256 indexed fileId,\r\n        string ipfsHash,\r\n        string fileName,\r\n        uint256 uploadTime,\r\n        address uploader\r\n    );\r\n\r\n    function uploadFile(\r\n        string memory _ipfsHash,\r\n        string memory _fileName\r\n    ) public {\r\n        require(bytes(_ipfsHash).length > 0, \"IPFS hash cannot be empty\");\r\n        require(bytes(_fileName).length > 0, \"File name cannot be empty\");\r\n\r\n        fileCount++;\r\n        files[fileCount] = File(\r\n            _ipfsHash,\r\n            _fileName,\r\n            block.timestamp,\r\n            msg.sender\r\n        );\r\n\r\n        emit FileUploaded(\r\n            fileCount,\r\n            _ipfsHash,\r\n            _fileName,\r\n            block.timestamp,\r\n            msg.sender\r\n        );\r\n    }\r\n\r\n    function getFile(\r\n        uint256 _fileId\r\n    ) public view returns (string memory, string memory, uint256, address) {\r\n        require(_fileId <= fileCount && _fileId > 0, \"Invalid file ID\");\r\n        File memory file = files[_fileId];\r\n        return (file.ipfsHash, file.fileName, file.uploadTime, file.uploader);\r\n    }\r\n}\r\n",
  "sourcePath": "C:\\Users\\USER\\Desktop\\BCT Project lab\\file-sharing-dapp\\contracts\\FileSharing.sol",
  "compiler": {
    "name": "solc",
    "version": "0.8.21+commit.d9974bed.Emscripten.clang"
  },
  "schemaVersion": "3.4.16",
  "updatedAt": "2024-11-10T05:11:15.111Z",
  "networkType": "ethereum",
  "devdoc": {
    "kind": "dev",
    "methods": {},
    "version": 1
  },
  "userdoc": {
    "kind": "user",
    "methods": {},
    "version": 1
  }
}